S01100004441345F5461736B312E7372656337
S11300000C9434000C9446000C9446000C94460066
S11300100C9446000C9446000C9446000C94460044
S11300200C9446000C9446000C9446000C94460034
S11300300C9446000C9446000C9446000C94460024
S11300400C9446000C9446000C9446000C94460014
S11300500C9446000C9448000C9446000C94460002
S11300600C9446000C94460011241FBECFEFD8E038
S1130070DEBFCDBF21E0A0E0B1E001C01D92A230FF
S1130080B207E1F70E9466000C9489000C9400000A
S11300901F920F920FB60F9211248F939F93EF9399
S11300A0FF93EAE7F0E080818061808380917900AA
S11300B090E09093010180930001FF91EF919F9153
S11300C08F910F900FBE0F901F90189580E88AB9FA
S11300D082EC84B9E1E8F0E080818D608083E0E81F
S11300E0F0E08081836A8083EAE7F0E080818E6EAD
S11300F08083ECE7F0E080818166808378948FEFE1
S113010085B98BB9E8E8F0E088EE93E091838083C9
S1090110FDCFF894FFCFBF
S9030000FC
