:100000000C9434000C9446000C9446000C9446006A
:100010000C9446000C9446000C9446000C94460048
:100020000C9446000C9446000C9446000C94460038
:100030000C9446000C9446000C9446000C94460028
:100040000C9446000C9446000C9446000C94460018
:100050000C9446000C9448000C9446000C94460006
:100060000C9446000C94460011241FBECFEFD8E03C
:10007000DEBFCDBF21E0A0E0B1E001C01D92A23003
:10008000B207E1F70E9466000C94E4000C940000B3
:100090001F920F920FB60F9211248F939F93EF939D
:1000A000FF93EAE7F0E080818061808380917900AE
:1000B00090E09093010180930001FF91EF919F9157
:1000C0008F910F900FBE0F901F9018958FE08AB9F7
:1000D000109280008DE08093810088ED99E59093E7
:1000E000890080938800EAE7F0E080818E6E80834B
:1000F000ECE7F0E0808181668083789471E062E0D3
:1001000054E048E080910001909101011816190611
:1001100084F480E090E0EFECF7E03197F1F700C075
:100120000000019620910001309101018217930790
:1001300094F37BB980910001909101011816190682
:1001400084F480E090E0EFECF7E03197F1F700C045
:100150000000019620910001309101018217930760
:1001600094F36BB980910001909101011816190662
:1001700084F480E090E0EFECF7E03197F1F700C015
:100180000000019620910001309101018217930730
:1001900094F35BB980910001909101011816190642
:1001A00084F480E090E0EFECF7E03197F1F700C0E5
:1001B0000000019620910001309101018217930700
:0C01C00094F34BB9B19A9ECFF894FFCF96
:00000001FF
