:100000000C9434000C9448000C9446000C94460068
:100010000C9446000C9446000C9446000C94460048
:100020000C9446000C9446000C9446000C94460038
:100030000C9446000C9446000C9446000C94460028
:100040000C9446000C9446000C9446000C94460018
:100050000C9446000C9446000C9446000C94460008
:100060000C9446000C94460011241FBECFEFD8E03C
:10007000DEBFCDBF21E0A0E0B1E001C01D92A23003
:10008000B207E1F70E9471000C94BB000C940000D1
:100090001F920F920FB60F9211248F939F938CB3E0
:1000A0008CBB8FE19EE40197F1F700C000008091C6
:1000B000000190910101009739F481E090E0909364
:1000C00001018093000106C0019721F41092010103
:1000D000109200019F918F910F900FBE0F901F9073
:1000E0001895CF93DF9300D0CDB7DEB7219A509A01
:1000F00081E08DBB83E080936900E1E8F0E08081DE
:100100008D608083E0E8F0E08081836A8083EAE7A5
:10011000F0E08081866E8083ECE7F0E08081816092
:1001200080837894EAE7F0E028E730E068E870E060
:1001300041E0808184FFFDCF808180618083D9018F
:100140008D919C91880F991F880F991F9A8389839D
:1001500089819A81DB0111969C938E938091000195
:10016000909101018130910511F44BB9E2CF892BB7
:0A01700001F71BB8DECFF894FFCFB3
:00000001FF
